:1000000045C0000060C000005EC000005CC0000091
:100010005AC0000058C0000056C0000054C0000084
:1000200052C0000050C000004EC000004CC0000094
:100030004AC00000DAC0000046C0000044C0000012
:1000400042C0000040C000003EC000008FC0000061
:100050003AC0000038C0000036C0000034C00000C4
:1000600032C0000030C000002EC000002CC00000D4
:100070002AC0000028C0000026C0000024C00000E4
:1000800022C0000020C000001EC0000011241FBEBE
:10009000CFEFD0E4DEBFCDBF11E0A0E0B1E0E0E003
:1000A000F3E000E00BBF02C007900D92A430B1074F
:1000B000D9F721E0A4E0B1E001C01D92A831B20758
:1000C000E1F7CFD01BC19CCF80EB84B981E58CBD1B
:1000D00008958EBD2C980DB407FEFDCF2C9A08957F
:1000E00080911401813061F028F08230E1F083309A
:1000F00051F139C081E08093140181E090E00895CE
:10010000189906C082E08093140181E0E2DF07C005
:10011000199905C083E08093140182E0DADF8091B1
:10012000140190E00895189906C081E082B982E038
:100130008093140104C012B881E08093140180916F
:10014000140190E00895199906C081E082B983E016
:100150008093140104C012B881E08093140180914F
:10016000140190E0089580E090E008951F920F92AE
:100170000FB60F9211240F900FBE0F901F9018957D
:100180006093000170930101809302019093030139
:1001900060930F01709310018093110190931201ED
:1001A00008958BE0809381008DE790E09093890023
:1001B0008093880082E080936F00109285001092F7
:1001C00084008091000190910101A0910201B09101
:1001D000030180930F0190931001A0931101B0933C
:1001E00012018FB780688FBF08951F920F920FB6CC
:1001F0000F9211248F939F93AF93BF9380910F0120
:1002000090911001A0911101B09112010197A109E3
:10021000B10980930F0190931001A0931101B09345
:100220001201892B8A2B8B2B99F481E08093130187
:100230008091000190910101A0910201B091030110
:1002400080930F0190931001A0931101B0931201BC
:10025000BF91AF919F918F910F900FBE0F901F9004
:1002600018958FEF81B912B814B885B9E4E0F1E0C0
:10027000108284E690E0A0E0B0E081839283A383C3
:10028000B48385839683A783B08780E790E09287C5
:10029000818764E670E080E090E072DF82DF14DF47
:1002A000C4E0D1E04D815E816F81788589819A813A
:1002B000AB81BC81481759076A077B0761F48881C5
:1002C000E985FA85082E000C990B099588831D8213
:1002D0001E821F8218868D819E81AF81B8858C59C0
:1002E0009F4FAF4FBF4F8D839E83AF83B887809161
:1002F00013018823E1F310921301D4CFF894FFCFB8
:0403000001000000F8
:00000001FF
