S02000006373313232412050726F6A656374204C434420536C6176652E7372656353
S113000045C0000060C000005EC000005CC000008D
S11300105AC0000058C0000056C0000054C0000080
S113002052C0000050C000004EC000004CC0000090
S11300304AC000003FC1000046C0000044C00000A8
S113004042C0000040C000003EC00000EFC00000FD
S11300503AC0000038C0000036C0000034C00000C0
S113006032C0000030C000002EC000002CC00000D0
S11300702AC0000028C0000026C0000024C00000E0
S113008022C0000020C000001EC0000011241FBEBA
S1130090CFEFD0E4DEBFCDBF11E0A0E0B1E0E2EFEE
S11300A0F9E000E00BBF02C007900D92A23AB1073D
S11300B0D9F721E0A2EAB1E001C01D92AE3CB2073B
S11300C0E1F7DFD394C49CCF8091CA01813041F021
S11300D018F0823099F0A1C081E08093CA019DC0DC
S11300E08091CB01823019F48093CA0196C08FEFBE
S11300F088B912B881E08093CA018FC08091BA0197
S1130100833031F481E08093CA011092BA0185C032
S11301108091B90181113AC08091C101813031F4DB
S11301208091B80180688093B80105C08091B801BE
S11301308F778093B8018091C001813031F4809130
S1130140B80180618093B80105C08091B8018F7EA9
S11301508093B8018091BF01813031F48091B8015E
S113016082608093B80105C08091B8018D7F80932F
S1130170B80181E08093B9018091B801809588B974
S113018080E882B982E08093CA0147C0813069F473
S11301908FEE88B980E482B98091B9018F5F809332
S11301A0B90182E08093CA0138C0823069F48FEFCC
S11301B088B980E282B98091B9018F5F8093B901D7
S11301C082E08093CA0129C0833069F48BEB88B93B
S11301D080E182B98091B9018F5F8093B90182E097
S11301E08093CA011AC0843069F48FEF88B988E01B
S11301F082B98091B9018F5F8093B90182E08093C5
S1130200CA010BC0853049F48FEE88B984E082B905
S11302101092B90182E08093CA0180E090E00895D1
S113022080E484B980EC8CBD789408951F920F9279
S11302300FB60F9211248F938EB58093CB018F91BB
S11302400F900FBE0F901F90189560934501709307
S1130250460180934701909348016093C5017093D0
S1130260C6018093C7019093C80108958BE08093E1
S113027081008DE790E0909389008093880082E06C
S113028080936F0010928500109284008091450144
S113029090914601A0914701B09148018093C50116
S11302A09093C601A093C701B093C8018FB780682B
S11302B08FBF08951F920F920FB60F9211248F9340
S11302C09F93AF93BF938091C5019091C601A09174
S11302D0C701B091C8010197A109B1098093C50173
S11302E09093C601A093C701B093C801892B8A2BB0
S11302F08B2B99F481E08093C90180914501909101
S11303004601A0914701B09148018093C5019093A3
S1130310C601A093C701B093C801BF91AF919F914B
S11303208F910F900FBE0F901F90189518161906F5
S11303305CF00895000021503109E1F74F5F5F4FF1
S11303408417950719F4089540E050E027E033E05E
S1130350F1CF10988BB9119A0000119882E090E0C7
S1130360E5CF089581E0F5CF089584E690E0DEDFDF
S113037088E3EFDF86E0EDDF8FE0EBDF81E0E9DFAC
S11303808AE090E0D3CF0895109A8BB9119A0000B7
S1130390119881E090E0CACF0895813118F4815812
S11303A0D8CF08958155D5CF08951F93CF93DF9368
S11303B0FB019081992351F0EB0111E0180FEDDF5F
S11303C08991E2DF812F98819111F7CFDF91CF914D
S11303D01F91089581309105E9F01CF4892B49F0AF
S11303E044C28230910509F42DC2039709F434C242
S11303F03CC2E091C401F0E0E050FF4F8081809363
S1130400C10181818093C00182818093BF0181E019
S113041090E008958091CB01813039F41092CB01A2
S1130420A1DF69E471E081E0C0DF8091CB0182301B
S1130430C1F4E091C401F0E0E050FF4F808180936B
S1130440C10181818093C00182818093BF01109298
S1130450CB0188DF6AE671E081E0A7DF81E090E00C
S113046008958330C1F47EDF1092CB0165E871E01A
S113047081E09BDF8DE091DF8091C301805D84DFAB
S11304808DE18BDF8091C201805D7EDF1092C3011C
S113049081E090E00895843089F464DF65E971E0D7
S11304A081E083DF8DE079DF81E090E086D2809384
S11304B0C201805D69DF81E090E00895803109F038
S11304C07AC01092CB018091C10181110EC080913C
S11304D0BA018F5F8093BA018AE15FDF8091BA012C
S11304E0805D52DF83E090E03AC08091BE018F5F6F
S11304F0823019F08093BE0108C081E08093BE0170
S11305008091BD018F5F8093BD018091BD018230D8
S113051041F481E08093BD018091BC018F5F8093A1
S1130520BC018091BC01823039F41092BC018091ED
S1130530BB018F5F8093BB018091BB01813039F493
S11305408091C3018F5F8093C3011092BB0188E047
S113055024DF8091C301805D17DF82E090E0209169
S1130560C4012D5F233418F42093C40102C01092F7
S1130570C401E091C401F0E0E050FF4F20812093DA
S1130580C10121812093C00122812093BF012091C8
S1130590BA01233009F074C16091C3018091C20192
S11305A0861718F481E090E010D283E08093CB01A9
S11305B081E090E00895813109F07AC01092CB0176
S11305C08091C00181110EC08091BA018F5F809328
S11305D0BA018AE1E2DE8091BA01805DD5DE83E072
S11305E090E03AC08091BE018F5F823019F0809311
S11305F0BE0108C081E08093BE018091BD018F5F80
S11306008093BD018091BD01823041F481E08093EB
S1130610BD018091BC018F5F8093BC018091BC01BE
S1130620823039F41092BC018091BB018F5F8093BA
S1130630BB018091BB01813039F48091C3018F5F8C
S11306408093C3011092BB0188E0A7DE8091C301AF
S1130650805D9ADE82E090E02091C4012D5F233416
S113066018F42093C40102C01092C401E091C401A3
S1130670F0E0E050FF4F20812093C10121812093BD
S1130680C00122812093BF012091BA01233009F0D7
S1130690F7C06091C3018091C201861718F481E00C
S11306A090E093D183E08093CB0181E090E00895C2
S11306B0823109F07AC01092CB018091BF0181117F
S11306C00EC08091BA018F5F8093BA018AE165DE22
S11306D08091BA01805D58DE83E090E03AC0809159
S11306E0BE018F5F823019F08093BE0108C081E0A3
S11306F08093BE018091BD018F5F8093BD01809185
S1130700BD01823041F481E08093BD018091BC0140
S11307108F5F8093BC018091BC01823039F41092C8
S1130720BC018091BB018F5F8093BB018091BB01B1
S1130730813039F48091C3018F5F8093C30110929B
S1130740BB0188E02ADE8091C301805D1DDE82E06A
S113075090E02091C4012D5F233418F42093C40148
S113076002C01092C401E091C401F0E0E050FF4FD8
S113077020812093C10121812093C00122812093F3
S1130780BF012091BA01233009F07AC06091C301FE
S11307908091C201861718F481E090E016D183E0BD
S11307A08093CB0181E090E008958331C1F51092EC
S11307B0CB018091BA018F5F8093BA018AE1EDDDAC
S11307C08091BA01805DE0DD8091C4018D5F833446
S11307D018F48093C40102C01092C401E091C401D2
S11307E0F0E0E050FF4F80818093C10181818093CC
S11307F0C00182818093BF018091BA018330C1F529
S11308006091C3018091C201861718F481E090E0E1
S1130810DCD083E08093CB0181E090E008951092D6
S1130820CB01E091C401F0E0E050FF4F8081809360
S1130830C10181818093C00182818093BF0181E0E5
S113084090E008958091CB0180518330A0F4109200
S1130850CB0182E090E008958091CB01833171F463
S11308601092CB0183E090E0089580E090E0089539
S113087083E090E0089581E090E0089581E090E0C5
S11308800895CF93DF9300D000D0CDB7DEB78FEFBC
S113089081B912B88AB91BB884B915B887B918B820
S11308A081E090E08AD08F3F21F460E081E090E025
S11308B08CD081E090E081D08093C201ADEAB1E0B8
S11308C0BA83A983E2EAF1E0FC83EB831C9242E35E
S11308D050E060E070E011964D935D936D937C93CE
S11308E0149715964D935D936D937C9318978AEEA8
S11308F091E01A969C938E931997108281E090E070
S1130900A0E0B0E081839283A383B483858396833C
S1130910A783B08784E690E09287818761E070E0E6
S113092080E090E092DCA2DC7BDC1FDD69E471E016
S113093081E03BDD7E0185E0E80EF11CDE011196CD
S11309406D01F601019111916F01D80115964D9138
S11309505D916D917C91189711968D919D910D905B
S1130960BC91A02D481759076A077B0781F4F80149
S113097080810184F285E02D082E000C990B0995E5
S1130980D8018C93F8011582168217821086F8011B
S113099085819681A781B0850196A11DB11D8583AE
S11309A09683A783B087CE14DF0459F68091C901DA
S11309B08823E1F31092C901C1CFF999FECF92BD0A
S11309C081BDF89A992780B50895262FF999FECF0D
S11309D092BD81BDF89A019700B4021639F01FBA8E
S11309E020BD0FB6F894FA9AF99A0FBE0895F894B8
S10509F0FFCF33
S11309F201010100010101010001000101010001E5
S1130A0201010000010101010100010001000101D5
S1130A1201000101000101010101010001010101C3
S1130A2200010100010001000100010001010100B7
S1130A320001010000010000004F68212054686198
S1130A427427732061202020204261736562616CE7
S1130A526C204C3253746172740053636F72653A42
S1130A6220302020202020202020537472696B65BE
S1130A72733A203000596F75722053636F72653A6E
S1130A822020202020486967682053636F72653AEA
S1050A9220003E
S9030000FC
