S02000006373313232412050726F6A656374204C434420536C6176652E7372656353
S113000045C0000060C000005EC000005CC000008D
S11300105AC0000058C0000056C0000054C0000080
S113002052C0000050C000004EC000004CC0000090
S11300304AC0000093C0000046C0000044C0000055
S113004042C0000040C000003EC0000043C00000A9
S11300503AC0000038C0000036C0000034C00000C0
S113006032C0000030C000002EC000002CC00000D0
S11300702AC0000028C0000026C0000024C00000E0
S113008022C0000020C000001EC0000011241FBEBA
S1130090CFEFD0E4DEBFCDBF11E0A0E0B1E0E0E5FA
S11300A0F3E000E00BBF02C007900D92AE30B10741
S11300B0D9F721E0AEE0B1E001C01D92A132B20750
S11300C0E1F7F6D043C19CCF80E484B980EC8CBDC9
S11300D0789408951F920F920FB60F9211248F9364
S11300E08EB580931E018F910F900FBE0F901F90BD
S11300F0189560930001709301018093020190931D
S113010003016093190170931A0180931B0190936A
S11301101C0108958BE0809381008DE790E090931B
S113012089008093880082E080936F00109285009C
S1130130109284008091000190910101A09102012C
S1130140B09103018093190190931A01A0931B01AC
S1130150B0931C018FB780688FBF08951F920F92D0
S11301600FB60F9211248F939F93AF93BF938091F7
S1130170190190911A01A0911B01B0911C010197E2
S1130180A109B1098093190190931A01A0931B014D
S1130190B0931C01892B8A2B8B2B99F481E08093DB
S11301A01D018091000190910101A0910201B09183
S11301B003018093190190931A01A0931B01B0933A
S11301C01C01BF91AF919F918F910F900FBE0F9023
S11301D01F901895181619065CF008950000215018
S11301E03109E1F74F5F5F4F8417950719F40895BC
S11301F040E050E027E033E0F1CF13988BB9149A34
S11302000000149882E090E0E5CF089584E690E041
S1130210E1DF88E3F2DF86E0F0DF8FE0EEDF81E00C
S1130220ECDF8AE090E0D6CF0895139A8BB9149A44
S11302300000149881E090E0CDCF0895813118F446
S11302408158DBCF08958155D8CF08951F93CF935C
S1130250DF93FB019081992351F0EB0111E0180F1A
S1130260EDDF8991E2DF812F98819111F7CFDF9142
S1130270CF911F9108958130910549F01CF4892B89
S113028089F002C0049774F080E090E008958091B2
S11302901E01813051F064E071E081E0D7DF81E03C
S11302A090E0089581E090E0089582E090E0089560
S11302B08FEF81B912B88AB91BB8EEE0F1E0108271
S11302C084E690E0A0E0B0E081839283A383B483CA
S11302D085839683A783B0878BE391E09287818798
S11302E064E670E080E090E004DF14DFEDDE8EDF92
S11302F0CEE0D1E04D815E816F81788589819A81DC
S1130300AB81BC81481759076A077B0761F4888170
S1130310E985FA85082E000C990B099588831D82BE
S11303201E821F8218868D819E81AF81B8858C596B
S11303309F4FAF4FBF4F8D839E83AF83B88780910C
S11303401D018823E1F310921D01D4CFF894FFCF4F
S1110350010000005461636F2042656C6C0074
S9030000FC
