S02000006373313232412050726F6A656374204C434420536C6176652E7372656353
S113000045C0000060C000005EC000005CC000008D
S11300105AC0000058C0000056C0000054C0000080
S113002052C0000050C000004EC000004CC0000090
S11300304AC0000096C1000046C0000044C0000051
S113004042C0000040C000003EC0000046C10000A5
S11300503AC0000038C0000036C0000034C00000C0
S113006032C0000030C000002EC000002CC00000D0
S11300702AC0000028C0000026C0000024C00000E0
S113008022C0000020C000001EC0000011241FBEBA
S1130090CFEFD0E4DEBFCDBF11E0A0E0B1E0EAE0F5
S11300A0FBE000E00BBF02C007900D92AA3BB10732
S11300B0D9F721E0AAEBB1E001C01D92A93EB20735
S11300C0E1F75DD420C59CCF8091E501813041F0FA
S11300D018F08230C9F0F8C081E08093E501F4C0E3
S11300E08091E601823019F48093E501EDC08FEF31
S11300F088B912B81092D7011092D6011092D50186
S113010081E08093E501E0C08091D301833031F434
S113011081E08093E5011092D301D6C08091D20191
S113012081113AC08091DA01813031F48091D1019A
S113013080688093D10105C08091D1018F7780932D
S1130140D1018091D901813031F48091D101806154
S11301508093D10105C08091D1018F7E8093D1011C
S11301608091D801813031F48091D10182608093F3
S1130170D10105C08091D1018D7F8093D10181E0AF
S11301808093D2018091D101809588B980E882B9A9
S113019082E08093E50198C08130A1F48091D6017A
S11301A0882319F08FEE88B902C08FEF88B980E4F4
S11301B082B98091D2018F5F8093D20182E08093D3
S11301C0E50182C0823069F48FEF88B980E282B998
S11301D08091D2018F5F8093D20182E08093E50108
S11301E073C0833009F040C08091D701882331F077
S11301F08091D00184608093D00105C08091D001AA
S11302008B7F8093D0018091D501882331F0809138
S1130210D00180648093D00105C08091D0018F7B90
S11302208093D001E091DE01F0E0E050FF4F808147
S1130230833030F08091D00181608093D00105C07B
S11302408091D0018E7F8093D0018091D0018095E0
S113025088B980E182B98091D2018F5F8093D20105
S113026082E08093E50130C08430C1F4E091DE0186
S1130270F0E0E050FF4F8081823018F08EEF88B9B3
S113028002C08FEF88B988E082B98091D2018F5F74
S11302908093D20182E08093E50116C08530A1F4F9
S11302A0E091DE01F0E0E050FF4F8081882319F0F7
S11302B08EEE88B902C08FEE88B984E082B91092BC
S11302C0D20182E08093E50180E090E0089580E42B
S11302D084B980EC8CBD789408951F920F920FB668
S11302E00F9211248F938EB58093E6018F910F9016
S11302F00FBE0F901F90189560935C0170935D0181
S113030080935E0190935F016093E0017093E1013B
S11303108093E2019093E30108958BE08093810040
S11303208DE790E0909389008093880082E0809329
S11303306F00109285001092840080915C0190916E
S11303405D01A0915E01B0915F018093E001909303
S1130350E101A093E201B093E3018FB780688FBFFE
S113036008951F920F920FB60F9211248F939F93AB
S1130370AF93BF938091E0019091E101A091E201DC
S1130380B091E3010197A109B1098093E001909331
S1130390E101A093E201B093E301892B8A2B8B2B1B
S11303A099F481E08093E40180915C0190915D0176
S11303B0A0915E01B0915F018093E0019093E1010F
S11303C0A093E201B093E301BF91AF919F918F910C
S11303D00F900FBE0F901F901895181619065CF019
S11303E00895000021503109E1F74F5F5F4F8417F2
S11303F0950719F4089540E050E027E033E0F1CF89
S113040010988BB9119A0000119882E090E0E5CF22
S1130410089581E0F5CF089584E690E0DEDF88E377
S1130420EFDF86E0EDDF8FE0EBDF81E0E9DF8AE0FC
S113043090E0D3CF0895109A8BB9119A00001198C7
S113044081E090E0CACF0895813118F48158D8CF63
S113045008958155D5CF08951F93CF93DF93FB0162
S11304609081992351F0EB0111E0180FEDDF899190
S1130470E2DF812F98819111F7CFDF91CF911F9106
S113048008958230910509F4B2C12CF4009759F013
S11304900197D1F068C28330910509F4B3C1049780
S11304A009F4BAC160C2E091DF01F0E0E95EFE4FF9
S11304B080818093DA0181818093D9018281809344
S11304C0D80181E090E008958091E601813039F40B
S11304D01092E6019EDF60E671E081E0BDDF80916D
S11304E0E6018230C1F4E091DF01F0E0E95EFE4F05
S11304F080818093DA0181818093D9018281809304
S1130500D8011092E60185DF61E871E081E0A4DFA3
S113051081E090E008958330C1F47BDF1092E6011E
S11305206CE971E081E098DF8DE08EDF8091DD0180
S1130530805D81DF8DE188DF8091DC01805D7BDF80
S11305401092DD0181E090E00895843089F461DF48
S11305506CEA71E081E080DF8DE076DF81E090E09D
S1130560B8D28093DC01805D66DF81E090E008957D
S1130570803109F04CC01092E6018091DA018111BA
S113058018C08091D3018F5F8093D3018091DE01E5
S11305908F5F873118F48093DE0102C01092DE0170
S11305A08AE152DF8091D301805D45DF83E090E0F2
S11305B002C084E090E02091DF012D5F233418F421
S11305C02093DF0102C01092DF01E091DF01F0E02F
S11305D0E95EFE4F20812093DA0121812093D90125
S11305E022812093D8012091D301233009F0C6C180
S11305F06091DD018091DC01861718F481E090E0C0
S113060070D283E08093E60181E090E00895813127
S113061009F04EC01092E6018091D90181111AC0EF
S11306208091D3018F5F8093D3018AE10DDF8091A4
S1130630D301805D00DF8091DE018F5F873128F474
S11306408093DE0183E090E007C01092DE0183E036
S113065090E002C084E090E02091DF012D5F23341C
S113066018F42093DF0102C01092DF01E091DF0152
S1130670F0E0E95EFE4F20812093DA01218120938E
S1130680D90122812093D8012091D301233009F08C
S113069075C16091DD018091DC01861718F481E059
S11306A090E01FD283E08093E60181E090E008951A
S11306B0823109F04EC01092E6018091D801811177
S11306C01AC08091D3018F5F8093D3018AE1BCDE8D
S11306D08091D301805DAFDE8091DE018F5F873131
S11306E028F48093DE0183E090E007C01092DE01DD
S11306F083E090E002C084E090E02091DF012D5F70
S1130700233418F42093DF0102C01092DF01E0913A
S1130710DF01F0E0E95EFE4F20812093DA012181C0
S11307202093D90122812093D8012091D301233031
S113073009F024C16091DD018091DC01861718F471
S113074081E090E0CED183E08093E60181E090E007
S113075008958331C9F51092E6018091D3018F5F2A
S11307608093D3018AE170DE8091D301805D63DEE2
S11307708091DF018D5F833418F48093DF0102C020
S11307801092DF01E091DF01F0E0E95EFE4F80812D
S11307908093DA0181818093D90182818093D80189
S11307A08091D301833009F0E1C06091DD01809133
S11307B0DC01861718F481E090E093D183E0809304
S11307C0E60181E090E008951092E601E091DF01F6
S11307D0F0E0E95EFE4F80818093DA0181818093AD
S11307E0D90182818093D80181E090E008958091BD
S11307F0E6018051833008F0BCC01092E60182E02B
S113080090E008958091E601833109F0B5C010921B
S1130810E60183E090E00895E091DE01F0E0E0502D
S1130820FF4F8081813041F58091D501813039F4C9
S11308301092D5018091DD018F5F8093DD0180915D
S1130840D601813021F41092D6018093D501809194
S1130850D701813019F48093D60102C0811103C0FD
S113086081E08093D70188E0EFDD8091DD01805D38
S1130870E2DD1092D40168C08230A1F58091D501E7
S1130880813039F41092D5018091DD018F5F80931E
S1130890DD018091D601813061F41092D6018091FE
S11308A0DD018F5F8093DD018091D701813071F488
S11308B004C08091D701813029F41092D70181E0DE
S11308C08093D5018091D601811103C081E080938A
S11308D0D60188E0B9DD8091DD01805DACDD109248
S11308E0D40132C0833081F58091D501813039F44F
S11308F08091DD018F5F8093DD011092D50180919D
S1130900D601813039F48091DD018F5F8093DD0160
S11309101092D6018091D701813039F41092D70119
S11309208091DD018F5F8093DD018091D50181117C
S113093003C081E08093D50188E086DD8091DD01EC
S1130940805D79DD1092D4018091DE018F5F873163
S113095028F48093DE0180E090E008951092DE0197
S113096080E090E0089580E090E0089583E090E0D6
S1130970089581E090E0089581E090E00895CF9398
S1130980DF9300D000D0CDB7DEB78FEF81B912B8B6
S11309908AB91BB884B915B887B918B881E090E052
S11309A098D08F3F21F460E081E090E09AD084E019
S11309B090E08FD08F3F21F460E084E090E091D00C
S11309C081E090E086D08093DC0184E090E081D0E7
S11309D08093DB01A5ECB1E0BA83A983EAEBF1E0F3
S11309E0FC83EB831C9242E350E060E070E01196DC
S11309F04D935D936D937C93149715964D935D93EE
S1130A006D937C93189781E492E01A969C938E934D
S1130A101997108281E090E0A0E0B0E08183928396
S1130A20A383B48385839683A783B08784E690E009
S1130A309287818761E070E080E090E05DDC6DDCAE
S1130A4046DCEADC60E671E081E006DD7E0185E0FB
S1130A50E80EF11CDE0111966D01F6010191119170
S1130A606F01D80115964D915D916D917C91189708
S1130A7011968D919D910D90BC91A02D4817590709
S1130A806A077B0781F4F80180810184F285E02DF7
S1130A90082E000C990B0995D8018C93F801158246
S1130AA0168217821086F80185819681A781B08508
S1130AB00196A11DB11D85839683A783B087CE14AB
S1130AC0DF0459F68091E4018823E1F31092E401F4
S1130AD0C1CFF999FECF92BD81BDF89A992780B50F
S1130AE00895262FF999FECF92BD81BDF89A0197FA
S1130AF000B4021639F01FBA20BD0FB6F894FA9A62
S10D0B00F99A0FBE0895F894FFCF90
S1130B0A01010201010103010203010102010101C0
S1130B1A01030103010303010101000101010100B1
S1130B2A01000101010001010100000101010101AB
S1130B3A000100010001010100010100010101019C
S1130B4A010100010101010001010001000100018C
S1130B5A0001000101010000010100000100000080
S1130B6A4F68212054686174277320612020202053
S1130B7A4261736562616C6C204C325374617274A5
S1130B8A0053636F72653A203020202020202020F1
S1130B9A20537472696B65733A203000596F757209
S1130BAA2053636F72653A202020202048696768C1
S10D0BBA2053636F72653A200000B7
S9030000FC
