:1000000045C0000060C000005EC000005CC0000091
:100010005AC0000058C0000056C0000054C0000084
:1000200052C0000050C000004EC000004CC0000094
:100030004AC0000093C0000046C0000044C0000059
:1000400042C0000040C000003EC0000043C00000AD
:100050003AC0000038C0000036C0000034C00000C4
:1000600032C0000030C000002EC000002CC00000D4
:100070002AC0000028C0000026C0000024C00000E4
:1000800022C0000020C000001EC0000011241FBEBE
:10009000CFEFD0E4DEBFCDBF11E0A0E0B1E0EAEFEA
:1000A000F3E000E00BBF02C007900D92A231B10750
:1000B000D9F721E0A2E1B1E001C01D92A632B2075A
:1000C000E1F717D198C19CCF80E484B980EC8CBD56
:1000D000789408951F920F920FB60F9211248F9368
:1000E0008EB5809323018F910F900FBE0F901F90BC
:1000F0001895609300017093010180930201909321
:10010000030160931E0170931F018093200190935F
:10011000210108958BE0809381008DE790E090931A
:1001200089008093880082E080936F0010928500A0
:10013000109284008091000190910101A091020130
:10014000B091030180931E0190931F01A0932001A1
:10015000B09321018FB780688FBF08951F920F92CF
:100160000FB60F9211248F939F93AF93BF938091FB
:100170001E0190911F01A0912001B09121010197D2
:10018000A109B10980931E0190931F01A093200142
:10019000B0932101892B8A2B8B2B99F481E08093DA
:1001A00022018091000190910101A0910201B09182
:1001B000030180931E0190931F01A0932001B0932F
:1001C0002101BF91AF919F918F910F900FBE0F9022
:1001D0001F901895181619065CF00895000021501C
:1001E0003109E1F74F5F5F4F8417950719F40895C0
:1001F00040E050E027E033E0F1CF13988BB9149A38
:100200000000149882E090E0E5CF089584E690E045
:10021000E1DF88E3F2DF86E0F0DF8FE0EEDF81E010
:10022000ECDF8AE090E0D6CF0895139A8BB9149A48
:100230000000149881E090E0CDCF0895813118F44A
:100240008158DBCF08958155D8CF0895813091052D
:1002500061F01CF4892B91F105C08230910529F1E0
:10026000039761F180E090E008958091230181304F
:1002700099F480911D018F5F80931D018EE0DEDF78
:1002800080911D01805DD1DF60911D0181E090E0D2
:10029000A0D082E090E008958EE0D0DF80911D0133
:1002A000805DC3DF81E090E008958091230181307B
:1002B00041F41092230182E090E0089581E090E003
:1002C000089581E090E008951F93CF93DF93FB01A1
:1002D0009081992351F0EB0111E0180FAFDF899164
:1002E000A4DF812F98819111F7CFDF91CF911F91DA
:1002F00008958FEF81B912B88AB91BB884B915B8BF
:1003000087B918B881E090E05CD08F3F21F460E0BD
:1003100081E090E05ED081E090E053D080931D01B9
:10032000E2E1F1E0108284E690E0A0E0B0E08183B9
:100330009283A383B48385839683A783B08786E261
:1003400091E09287818764E670E080E090E0D1DE02
:10035000E1DEBADE5BDF64E071E081E0B5DF809171
:100360001D01805D62DFC2E1D1E04D815E816F8160
:10037000788589819A81AB81BC81481759076A07C2
:100380007B0761F48881E985FA85082E000C990BBA
:10039000099588831D821E821F8218868D819E8109
:1003A000AF81B8858C599F4FAF4FBF4F8D839E83D0
:1003B000AF83B887809122018823E1F31092220154
:1003C000D4CFF999FECF92BD81BDF89A992780B517
:1003D0000895262FF999FECF92BD81BDF89A019715
:1003E00000B4021639F01FBA20BD0FB6F894FA9A7D
:0A03F000F99A0FBE0895F894FFCFAC
:1003FA00010000004F6B61792042306F6D65723ADF
:02040A002000D0
:00000001FF
