S01E0000313232412050726F6A65637420426C7565746F6F74682E7372656363
S113000053C000006EC000006CC000006AC0000055
S113001068C0000066C0000064C0000062C0000048
S113002060C000005EC000005CC000005AC0000058
S113003058C00000B4C2000054C0000052C0000008
S113004050C000004EC000004CC0000064C200005C
S113005048C0000046C0000044C0000042C0000088
S113006040C000003EC000003CC000003AC0000098
S113007038C0000036C0000034C0000032C00000A8
S113008030C000002EC000002CC000001D01210162
S113009041014A01620174015C018F01A101A901BE
S11300A0600266026C02720211241FBECFEFD0E41C
S11300B0DEBFCDBF11E0A0E0B1E0E2E6F7E000E092
S11300C00BBF02C007900D92A035B107D9F721E00C
S11300D0A0E5B1E001C01D92A638B207E1F79BD2BA
S11300E03EC38ECF813081F0E1ECF0E08081886105
S11300F08083E2ECF0E080818660808383E38093F8
S1130100C4001092C5000895E9ECF0E08081886194
S11301108083EAECF0E080818660808383E38093CF
S1130120CC001092CD000895813029F48091C8004C
S1130130882374F008958091C00088238CF4A6EC81
S1130140B0E0E0ECF0E08C9180818823E4F3089542
S1130150AEECB0E0E8ECF0E08C9180818823E4F32D
S1130160089580918101813041F018F0823049F185
S11301703CC081E0809381013DC034990BC0109252
S113018076018091750181608093750182E080938E
S1130190810134C08091C000882334F080E0C4DF42
S11301A081E08093810126C080E0BEDF80917501EB
S11301B08160809375011092760182E080938101C1
S11301C01DC080917601883038F48F5F809376016A
S11301D082E08093810112C0809175018E7F8093AB
S11301E0750181E08093810105C0813019F082306E
S11301F041F404C08091750182B903C080917501F6
S113020082B980E090E0089580EB84B981E58CBDEB
S113021008958EBD2C980DB407FEFDCF2C9A089539
S1130220CF9320918401822F90E08730910508F0CC
S113023061C0FC01EA5BFF4F89C281E080938401C5
S11302405BC093B181E020917801213009F080E016
S113025090FD0AC0882341F0C2E0C093780182E097
S1130260D8DFC09384014BC0309946C0882309F479
S113027043C0C4E0C093780184E0CBDFC093840121
S11302803EC0809177018330D1F5809378018093CB
S1130290840135C0189933C081E09091780193307E
S11302A009F080E0882359F181E080937801B1DF7F
S11302B086E08093840123C0189B21C081E0809351
S11302C084011AC018991BC081E090917801943080
S11302D009F080E0882399F081E08093780199DF28
S11302E085E0809384010BC0189B09C081E0809352
S11302F0840102C0213019F48091750182B980E033
S113030090E0CF910895E09185018E2F90E08730A1
S1130310910508F0FDC0FC01E35BFF4F17C2E091BB
S11303207101F0E0E050FF4F80818093740181817E
S11303308093730182818093720181E080938501AF
S1130340E7C080917801823009F0E2C08093850192
S1130350DFC080917701833029F481E080938501A7
S11303601092770180917801833021F481E08093A9
S11303708501CEC01A9B2BC080917401811104C0E9
S113038086E08093850103C083E08093850180919A
S113039071018D5F833418F48093710102C010924F
S11303A07101E0917101F0E0E050FF4F8081809392
S11303B074018181809373018281809372018091A1
S11303C0750182608093750180E123DFA1C01B9BCE
S11303D023C0809171018D5F833418F4809371017F
S11303E002C010927101E0917101F0E0E050FF4F02
S11303F080818093740181818093730182818093D1
S113040072018091750184608093750186E0809308
S1130410850183E1FEDE7CC0319B26C0809173019F
S1130420811104C086E08093850103C084E0809339
S11304308501809171018D5F833418F4809371017B
S113044002C010927101E0917101F0E0E050FF4FA1
S11304508081809374018181809373018281809370
S1130460720181E1D6DE54C0329B26C080917201B4
S1130470811104C086E08093850103C085E08093E8
S11304808501809171018D5F833418F4809371012B
S113049002C010927101E0917101F0E0E050FF4F51
S11304A08081809374018181809373018281809320
S11304B0720182E1AEDE2CC082E08093850128C007
S11304C01A9926C082E08093850122C0319920C008
S11304D082E0809385011CC032991AC082E0809327
S11304E0850116C033B183B126B196B1482F487047
S11304F0832F8470842B2270822B9470892B41F477
S1130500809177018F5F8093770182E080938501EA
S113051080E090E008951F920F920FB60F9211247D
S11305208F938EB5809380018F910F900FBE0F90A3
S11305301F9018956093450170934601809347017D
S1130540909348016093790170937A0180937B01C1
S113055090937C0108958BE0809381008DE790E077
S1130560909389008093880082E080936F001092BA
S11305708500109284008091450190914601A091DC
S11305804701B09148018093790190937A01A09337
S11305907B01B0937C018FB780688FBF08951F9251
S11305A00F920FB60F9211248F939F93AF93BF9323
S11305B08091790190917A01A0917B01B0917C01A5
S11305C00197A109B1098093790190937A01A093CD
S11305D07B01B0937C01892B8A2B8B2B99F481E0CE
S11305E080937D018091450190914601A09147013E
S11305F0B09148018093790190937A01A0937B0193
S1130600B0937C01BF91AF919F918F910F900FBEDA
S11306100F901F901895CF93DF9300D000D000D097
S1130620CDB7DEB78FE081B980EF82B914B88FEF10
S113063085B917B888B986E0E9E4F1E0DE011196DE
S113064001900D928A95E1F7E6E6F1E0108284E6E6
S113065090E0A0E0B0E081839283A383B483858398
S11306609683A783B08721EB30E032872187EBE5BF
S1130670F1E0108281839283A383B483858396837C
S1130680A783B08720E131E032872187E0E5F1E0FC
S1130690108281839283A383B48385839683A78303
S11306A0B08783E891E09287818764E670E080E018
S11306B090E040DF50DFA8DD80E014DD81E080932E
S11306C07801A7DD7E0187E0E80EF11CDE011196BA
S11306D06D01F601019111916F01D80115964D91AB
S11306E05D916D917C91189711968D919D910D90CE
S11306F0BC91A02D481759076A077B0781F4F801BC
S113070080810184F285E02D082E000C990B099557
S1130710D8018C93F8011582168217821086F8018D
S113072085819681A781B0858C599F4FAF4FBF4F6C
S113073085839683A783B087CE14DF0451F6809116
S11307407D018823E1F310927D01C0CFEE0FFF1FDE
S11307500024001C0BBE0790F691E02D0994F89438
S1050760FFCFC5
S11307620101010001010101000100010101000177
S11307720101000001010101010001000100010168
S11307820100010100010101010101000101010156
S1130792000101000100010001000100010101004A
S11307A200010100000100000066015B015001002C
S9030000FC
